S0120000487964726F706F6E69632E73726563F3
S11300000C942A000C9447000C9447000C9447006D
S11300100C9447000C9447000C9447000C94470040
S11300200C9447000C9447000C9447000C94470030
S11300300C9447000C9447000C9447000C94470020
S11300400C9447000C9447000C9447000C94470010
S11300500C94470011241FBECFE5D8E0DEBFCDBF0E
S113006010E0A0E6B0E0E8E9FEE002C005900D92E1
S1130070A036B107D9F710E0A0E6B0E001C01D92A8
S1130080AD37B107E1F70E94DC020C944A070C94E7
S1130090000087E886B980E487B9089597B1987F0E
S11300A097B997B1892B87B9369A86B184FFFDCF6A
S11300B0349A24B135B1932F80E0820F911D0895B5
S11300C0AF92BF92DF92EF92FF920F931F93CF9361
S11300D0DF93D82EC8E6D0E05E018E010C5E1F4F80
S11300E07E018D2D0E944E00F701819391937F0133
S11300F08FE19EE40197F1F700C00000E017F107DB
S113010081F780E090E001C0CA01AC014F5F5F4F0E
S11301104A305105CCF5FA01EE0FFF1FE859FF4FA5
S1130120DE0128813981808191818217930728F427
S113013011969C938E93318320833296E017F107B6
S113014081F7229649305105F9F6ECE6F0E0950185
S1130150205F3F4F40E050E081919191480F591F3B
S1130160E217F307C9F7CA0166E070E00E94360798
S1130170862F972FDF91CF911F910F91FF90EF90D2
S1130180DF90BF90AF9008952296CA01BECF0E941F
S11301904E00BC0180E090E00E941D0620E030E0AB
S11301A040EA50E40E94D30620E030E040E85AE3FD
S11301B00E94D306462F572F682F792FCB01BA01FF
S11301C008950E946000BC0180E090E00E941D063A
S11301D020E030E040EA50E40E94D30620E030E022
S11301E040E85AE30E94D306462F572F682F792FF1
S11301F0CB01BA0108958FEF93EDA0E381509040B5
S1130200A040E1F700C0000010927C0008958091A6
S11302107C000895CF92DF92EF92FF920F931F9389
S1130220CF93DF9300D000D00F92CDB7DEB7FE019D
S1130230319625E0DF011D922A95E9F710927C00A2
S1130240DF98D79AEFE3FCE93197F1F700C000009B
S1130250DF9AD79829E20AC0F5E0FA95F1F7000091
S1130260215021F484E080937C0099C0CF99F4CF8D
S113027020917C00222359F092C035E03A95F1F7A1
S11302800000215029F424E020937C000EC023E3D5
S1130290CF9BF3CF0AC045E04A95F1F70000215007
S11302A029F484E080937C007AC023E3CF99F3CFD0
S11302B020917C00222309F443C071C055E05A9573
S11302C0F1F70000415031F4F0927C00BE2D34C0AF
S11302D0B42F44E2CF9BF2CF40917C00442349F5F4
S11302E0EDE5EA95F1F70000CF9B1EC0E1E0F0E0F8
S11302F0EC0FFD1FEB0FF11DB901A8010A2E04C07C
S1130300440F551F661F771F0A94D2F7D0804D29DA
S113031040830AC0F5E0FA95F1F70000415029F452
S1130320F0927C004B2F06C043E3CF99F3CF4B2FC1
S113033001C04B2FA15062F6BF5FB53088F012C0E8
S1130340B0E00F2EF7E0CF2EF02D01E010E020E01A
S113035030E0FF246894F2F80F2EF5E0EF2EF02D34
S1130360AC2DB7CF20917C002223C9F43A81298196
S1130370320F2B81320F2C81320F2D81321721F055
S113038083E080937C000BC0DE011196E82FF92FE7
S1130390CE0105962D912193A817B907D9F70F908F
S11303A00F900F900F900F90DF91CF911F910F91AD
S11303B0FF90EF90DF90CF900895AF92BF92CF92CD
S11303C0DF92EF92FF920F931F93CF93DF9300D0AE
S11303D000D0CDB7DEB76C017B0119821A821B8273
S11303E01C82CE0101960E940A0180917C00882320
S11303F009F08FC02B816C812223ACF430E02F777D
S11304003070322F222770E0622B732B882777FD00
S11304108095982F0E941F0620E030E040E251ECC6
S11304200E94890511C0922F80E070E0682B792B1F
S1130430882777FD8095982F0E941F0620E030E0E2
S113044040E251E40E948905382F292F862F972FE7
S1130450A32FB22FF60180839183A283B383998162
S113046080E06A8170E0682B792B882777FD80957E
S1130470982F0E941F0620E030E040E251E40E94E1
S11304808905162F072FB82EA92E862F902FAB2D56
S1130490BA2DF70180839183A283B383F601C080D0
S11304A0D180E280F380C701B60120E030E040E271
S11304B052EC0E948505882354F0C701B60120E060
S11304C030E040EA52E40E94CF06181624F482E099
S11304D080937C001EC0812F902FAB2DBA2DBC01C0
S11304E0CD0120E030E0A9010E948505882374F045
S11304F0812F902FAB2DBA2DBC01CD0120E030E02F
S113050048EC52E40E94CF0618161CF481E0809354
S11305107C000F900F900F900F90DF91CF911F915F
S11305200F91FF90EF90DF90CF90BF90AF90089520
S1130530CF93DF9300D000D0CDB7DEB7BC01CE019E
S113054001960E94DD010F900F900F900F90DF91A4
S1130550CF910895CF93DF9300D000D0CDB7DEB70D
S1130560BE016F5F7F4F0E94DD010F900F900F90CF
S11305700F90DF91CF91089526E636E646EE5FE3CD
S11305800E94D30620E030E040E052E40E942105BE
S1130590462F572F682F792FCB01BA01089523E3F3
S11305A033E948E853E40E942105462F572F682F6A
S11305B0792FCB01BA010895CF93DF93CDB7DEB77E
S11305C02A970FB6F894DEBF0FBECDBF81B3806308
S11305D081BBCE0109960E948F040E94FB00CE01CC
S11305E00196BE016B5F7F4F0E94DD018FEF93ED9B
S11305F0A0E381509040A040E1F700C00000EFCF9D
S113060020E030E848E853E40E94210528EC37E074
S113061045E051E40E94D3062CEC3DE543E150E46F
S11306200E94D30620E832E74CEB57E40E94890588
S1130630462F572F682F792FCB01BA0108954F9277
S11306405F926F927F928F929F92AF92BF92CF925E
S1130650DF92EF92FF920F931F93CF93DF93CDB767
S1130660DEB728970FB6F894DEBF0FBECDBF6D83FB
S11306707E838F83988729833A834B835C83270106
S1130680380176016501C301B2012B8D3C8D4D8D7E
S11306905E8D0E9420054B015C01C701B6012981D2
S11306A03A814B815C810E9420059B01AC01C5010C
S11306B0B4010E948905162F072FB82EA92E6D812B
S11306C07E818F8198850E9400036B017C01812FBC
S11306D0902FAB2DBA2DBC01CD01A70196010E942C
S11306E08905F62FE72F382F292F982F4F2F5E2FAC
S11306F0692F722F409360005093610060936200F1
S113070070936300C701B601422F0F2F1E2F232FB2
S1130710342FA90198010E94D3066B017C016981E1
S11307207A818B819C8120E030E040EE50E40E948D
S113073020059B01AC01C701B6010E94D3069B01B1
S1130740AC01C301B2010E942105DC01CB018093FD
S1130750640090936500A0936600B09367002896A8
S11307600FB6F894DEBF0FBECDBFDF91CF911F91BE
S11307700F91FF90EF90DF90CF90BF90AF909F903C
S11307808F907F906F905F904F9008958F929F927B
S1130790AF92BF92CF92DF92EF92FF920F931F938B
S11307A0CF93DF936B017C01809060009090610097
S11307B0A0906200B0906300609164007091650045
S11307C080916600909167000E942005D62FC72F64
S11307D0182F092FC701B6010E9400039B01AC0129
S11307E0C501B4010E94D3069B01AC018D2F9C2F3F
S11307F0A12FB02FBC01CD010E94890520E030E07B
S113080040EE50E40E942105462F572F682F792F80
S1130810CB01BA01DF91CF911F910F91FF90EF901F
S1130820DF90CF90BF90AF909F908F900895B89A2B
S1130830B99ABA9A81E00895CF93C82F80E090E0E6
S11308400E941D0620E030E443E854E40E94D306ED
S11308500E94F105C13079F0C130B8F0C23009F01E
S11308605BC062957295707F7627607F76276115ED
S11308707105F1F551C062957295707F7627607F9E
S1130880762761157105F9F447C062957295707FFA
S11308907627607F762761157105F1F180E090E09D
S11308A0C09AE0E7F2E03197F1F700C00000C09889
S11308B0E0E7F2E03197F1F700C0000001968617F7
S11308C0970771F729C080E090E0C29AE0E7F2E070
S11308D03197F1F700C00000C298E0E7F2E03197E9
S11308E0F1F700C0000001968617970771F714C04E
S11308F080E090E0C19AE0E7F2E03197F1F700C0C0
S11309000000C198E0E7F2E03197F1F700C0000081
S113091001968617970771F781E0CF910895FC013E
S11309208C9A8D9A8EB5887F8EBD88EE93E09BBDA0
S11309308ABD99BD88BD82EA8FBD8AE18EBD80E201
S11309409EE497BD86BD1082118281E090E00895F7
S1130950AF92BF92CF92DF92EF92FF921F93CF9309
S1130960DF9300D0CDB7DEB76B017C015A01122FA3
S113097020E030E044E353E40E94890520E030E0C5
S11309804AE754E40E94D30620E030EC49E754E4FB
S11309900E9421050E94F105DC01CB019A83898321
S11309A0C701B60120E030E0A9010E94CF068823E8
S11309B0B4F1C701B60120E030E044E353E40E94FF
S11309C0850518167CF11123A9F4C701B6010E940C
S11309D0F105F50160838EB5887F8EBD1DBC1CBCFE
S11309E089819A819BBD8ABD8EB582608EBD81E06E
S11309F090E01AC0C701B6010E94F105F5016183B8
S1130A008EB5887F8EBD1DBC1CBC89819A8199BD21
S1130A1088BD8EB582608EBD81E090E005C080E027
S1130A2090E002C080E090E00F900F90DF91CF91B2
S1130A301F91FF90EF90DF90CF90BF90AF900895FB
S1130A405058BB27AA270ED070C161D130F066D1AF
S1130A5020F031F49F3F11F41EF456C10EF4E095DA
S1130A60E7FB4CC1E92F72D180F3BA176207730711
S1130A708407950718F071F49EF58AC10EF4E09589
S1130A800B2EBA2FA02D0B01B90190010C01CA0144
S1130A90A0011124FF27591B99F0593F50F4503EEF
S1130AA068F11A16F040A22F232F342F4427585FE1
S1130AB0F3CF469537952795A795F0405395C9F7F9
S1130AC07EF41F16BA0B620B730B840BBAF09150B1
S1130AD0A1F0FF0FBB1F661F771F881FC2F70EC050
S1130AE0BA0F621F731F841F48F487957795679523
S1130AF0B795F7959E3F08F0B3CF9395880F08F00C
S1130B009927EE0F979587950895D4D008F481E03E
S1130B1008950CD00AC102D140F0F9D030F021F48C
S1130B205F3F19F0EBC0511134C1EEC00FD198F3FF
S1130B309923C9F35523B1F3951B550BBB27AA275A
S1130B4062177307840738F09F5F5F4F220F331FCC
S1130B50441FAA1FA9F333D00E2E3AF0E0E830D098
S1130B6091505040E695001CCAF729D0FE2F27D09B
S1130B70660F771F881FBB1F261737074807AB0769
S1130B80B0E809F0BB0B802DBF01FF2793585F4FDE
S1130B902AF09E3F510568F0B1C0FBC05F3FECF303
S1130BA0983EDCF3869577956795B795F7959F5FA3
S1130BB0C9F7880F911D9695879597F90895E1E0F7
S1130BC0660F771F881FBB1F621773078407BA0756
S1130BD020F0621B730B840BBA0BEE1F88F7E095B1
S1130BE00895BCD088F09F5790F0B92F9927B7513A
S1130BF0A0F0D1F0660F771F881F991F1AF0BA95DD
S1130C00C9F712C0B13081F0C3D0B1E00895C0C0BB
S1130C10672F782F8827B85F39F0B93FCCF38695D2
S1130C2077956795B395D9F73EF49095809570952F
S1130C3061957F4F8F4F9F4F0895E89409C097FBAC
S1130C403EF490958095709561957F4F8F4F9F4F9F
S1130C509923A9F0F92F96E9BB279395F6958795E3
S1130C6077956795B795F111F8CFFAF4BB0F11F4A6
S1130C7060FF1BC06F5F7F4F8F4F9F4F16C088234D
S1130C8011F096E911C0772321F09EE8872F762F83
S1130C9005C0662371F096E8862F70E060E02AF0C4
S1130CA09A95660F771F881FDAF7880F96958795B0
S1130CB097F90895990F0008550FAA0BE0E8FEEF85
S1130CC016161706E807F907C0F012161306E4070C
S1130CD0F50798F0621B730B840B950B39F40A2605
S1130CE061F0232B242B252B21F408950A2609F4E3
S1130CF0A140A6958FEF811D811D089597F99F67E7
S1130D0080E870E060E008959FEF80EC089500248F
S1130D100A941616170618060906089500240A945C
S1130D2012161306140605060895092E0394000CE2
S1130D3011F4882352F0BB0F40F4BF2B11F460FF71
S1130D4004C06F5F7F4F8F4F9F4F089557FD90589A
S1130D50440F551F59F05F3F71F04795880F97FB7B
S1130D60991F61F09F3F79F0879508951216130635
S1130D701406551FF2CF4695F1DF08C01616170664
S1130D801806991FF1CF8695710561050894089599
S1130D90E894BB2766277727CB0197F908958ADF64
S1130DA008F48FEF08950BD0C0CFB1DF28F0B6DF81
S1130DB018F0952309F0A2CFA7CF1124EACFC6DFFC
S1130DC0A0F3959FD1F3950F50E0551F629FF0015A
S1130DD0729FBB27F00DB11D639FAA27F00DB11DB3
S1130DE0AA1F649F6627B00DA11D661F829F22273C
S1130DF0B00DA11D621F739FB00DA11D621F839FC3
S1130E00A00D611D221F749F3327A00D611D231F98
S1130E10849F600D211D822F762F6A2F11249F57E6
S1130E2050408AF0E1F088234AF0EE0FFF1FBB1F09
S1130E30661F771F881F91505040A9F79E3F5105A8
S1130E4070F05CCFA6CF5F3FECF3983EDCF3869561
S1130E5077956795B795F795E7959F5FC1F7FE2B53
S1130E60880F911D9695879597F90895AA1BBB1B2A
S1130E7051E107C0AA1FBB1FA617B70710F0A61B96
S1130E80B70B881F991F5A95A9F780959095BC01B7
S10B0E90CD010895F894FFCF91
S9030000FC
