S00D0000536572766F2E7372656308
S11300000C942A000C9447000C9447000C9447006D
S11300100C9447000C9447000C9447000C94470040
S11300200C9447000C9447000C9447000C94470030
S11300300C9447000C9447000C9447000C94470020
S11300400C9447000C9447000C9447000C94470010
S11300500C94470011241FBECFE5D8E0DEBFCDBF0E
S113006010E0A0E6B0E0E0EBFEE002C005900D92E7
S1130070A036B107D9F710E0A0E6B0E001C01D92A8
S1130080A936B107E1F70E942A020C9456070C9492
S113009000008FEF93EDA0E381509040A040E1F782
S11300A000C00000109268000895809168000895CF
S11300B0CF92DF92EF92FF920F931F93CF93DF9330
S11300C000D000D00F92CDB7DEB7FE01319625E007
S11300D0DF011D922A95E9F710926800DF98D79AFC
S11300E0EFE3FCE93197F1F700C00000DF9AD798FD
S11300F029E20AC0F5E0FA95F1F70000215021F455
S113010084E08093680099C0CF99F4CF209168006F
S1130110222359F092C035E03A95F1F700002150BE
S113012029F424E0209368000EC023E3CF9BF3CF8F
S11301300AC045E04A95F1F70000215029F484E013
S1130140809368007AC023E3CF99F3CF20916800AD
S1130150222309F443C071C055E05A95F1F7000019
S1130160415031F4F0926800BE2D34C0B42F44E203
S1130170CF9BF2CF40916800442349F5EDE5EA9521
S1130180F1F70000CF9B1EC0E1E0F0E0EC0FFD1F93
S1130190EB0FF11DB901A8010A2E04C0440F551F2D
S11301A0661F771F0A94D2F7D0804D2940830AC076
S11301B0F5E0FA95F1F70000415029F4F092680057
S11301C04B2F06C043E3CF99F3CF4B2F01C04B2FE6
S11301D0A15062F6BF5FB53088F012C0B0E00F2EB8
S11301E0F7E0CF2EF02D01E010E020E030E0FF2416
S11301F06894F2F80F2EF5E0EF2EF02DAC2DB7CF6A
S1130200209168002223C9F43A812981320F2B817D
S1130210320F2C81320F2D81321721F083E080932D
S113022068000BC0DE011196E82FF92FCE01059668
S11302302D912193A817B907D9F70F900F900F901C
S11302400F900F90DF91CF911F910F91FF90EF903E
S1130250DF90CF900895AF92BF92CF92DF92EF924A
S1130260FF920F931F93CF93DF9300D000D0CDB7AD
S1130270DEB76C017B0119821A821B821C82CE01BB
S113028001960E94580080916800882309F08FC06D
S11302902B816C812223ACF430E02F773070322F25
S11302A0222770E0622B732B882777FD8095982F87
S11302B00E943F0620E030E040E251EC0E94A90594
S11302C011C0922F80E070E0682B792B882777FD8E
S11302D08095982F0E943F0620E030E040E251E4F0
S11302E00E94A905382F292F862F972FA32FB22FCD
S11302F0F60180839183A283B383998180E06A812C
S113030070E0682B792B882777FD8095982F0E94C1
S11303103F0620E030E040E251E40E94A905162F98
S1130320072FB82EA92E862F902FAB2DBA2DF701AB
S113033080839183A283B383F601C080D180E2805D
S1130340F380C701B60120E030E040E252EC0E94A5
S1130350A505882354F0C701B60120E030E040EA47
S113036052E40E94EF06181624F482E08093680099
S11303701EC0812F902FAB2DBA2DBC01CD0120E0E2
S113038030E0A9010E94A505882374F0812F902FE5
S1130390AB2DBA2DBC01CD0120E030E048EC52E495
S11303A00E94EF0618161CF481E0809368000F90F9
S11303B00F900F900F90DF91CF911F910F91FF90AD
S11303C0EF90DF90CF90BF90AF900895CF93DF93DD
S11303D000D000D0CDB7DEB7BC01CE0101960E949B
S11303E02B010F900F900F900F90DF91CF910895F4
S11303F0CF93DF9300D000D0CDB7DEB7BE016F5FDF
S11304007F4F0E942B010F900F900F900F90DF9160
S1130410CF91089526E636E646EE5FE30E94F306A2
S113042020E030E040E052E40E944105462F572F7F
S1130430682F792FCB01BA01089523E333E948E803
S113044053E40E944105462F572F682F792FCB0183
S1130450BA010895CF93DF93CDB7DEB760970FB697
S1130460F894DEBF0FBECDBF81B3806381BB81E44E
S1130470BE01675F7F4F0E94AE0482E4BE01655FE8
S11304807F4F0E94AE04CE010D9661E440E021E46A
S113049001E00E9475030E944900CE010196BE014D
S11304A06B5F7F4F0E942B018FEF93EDA0E3815090
S11304B09040A040E1F700C00000EFCF20E030E81A
S11304C048E853E40E94410528EC37E045E051E454
S11304D00E94F3062CEC3DE543E150E40E94F30650
S11304E020E832E74CEB57E40E94A905462F572F2A
S11304F0682F792FCB01BA0108954F925F926F92C2
S11305007F928F929F92AF92BF92CF92DF92EF929F
S1130510FF920F931F93CF93DF93CDB7DEB7289746
S11305200FB6F894DEBF0FBECDBF6D837E838F837D
S1130530988729833A834B835C83270138017601AA
S11305406501C301B2012B8D3C8D4D8D5E8D0E94E2
S113055040054B015C01C701B60129813A814B81F9
S11305605C810E9440059B01AC01C501B4010E945D
S1130570A905162F072FB82EA92E6D817E818F8194
S113058098850E945E026B017C01812F902FAB2D18
S1130590BA2DBC01CD01A70196010E94A905F62F31
S11305A0E72F382F292F982F4F2F5E2F692F722F67
S11305B04093600050936100609362007093630005
S11305C0C701B601422F0F2F1E2F232F342FA9014D
S11305D098010E94F3066B017C0169817A818B8109
S11305E09C8120E030E040EE50E40E9440059B01F5
S11305F0AC01C701B6010E94F3069B01AC01C30123
S1130600B2010E944105DC01CB0180936400909308
S11306106500A0936600B093670028960FB6F8941F
S1130620DEBF0FBECDBFDF91CF911F910F91FF9021
S1130630EF90DF90CF90BF90AF909F908F907F907E
S11306406F905F904F9008958F929F92AF92BF9258
S1130650CF92DF92EF92FF920F931F93CF93DF938A
S11306606B017C018090600090906100A09062001A
S1130670B0906300609164007091650080916600A1
S1130680909167000E944005D62FC72F182F092F7D
S1130690C701B6010E945E029B01AC01C501B40111
S11306A00E94F3069B01AC018D2F9C2FA12FB02F2C
S11306B0BC01CD010E94A90520E030E040EE50E4E9
S11306C00E944105462F572F682F792FCB01BA017D
S11306D0DF91CF911F910F91FF90EF90DF90CF901A
S11306E0BF90AF909F908F9008950F93FC01438328
S11306F0628301832083623411F1633420F4613412
S113070009F05EC006C0633481F1643409F058C056
S113071042C02AB381E090E0BC0102C0660F771F9B
S11307204A95E2F7AB01422B4ABB2BB3038002C0CC
S1130730880F991F0A94E2F7822B8BBB41C027B321
S113074081E090E0BC0102C0660F771F4A95E2F792
S1130750AB01422B47BB28B3038002C0880F991F0B
S11307600A94E2F7822B88BB2BC024B381E090E08B
S1130770BC0102C0660F771F4A95E2F7AB01422B1A
S113078044BB25B3038002C0880F991F0A94E2F783
S1130790822B85BB15C021B381E090E0BC0102C06F
S11307A0660F771F4A95E2F7AB01422B41BB22B398
S11307B0038002C0880F991F0A94E2F7822B82BB40
S11307C080818234B9F0833418F48134C9F505C0CA
S11307D08334E9F08434A1F527C04AB321E030E042
S11307E0C901018002C0880F991F0A94E2F7842B83
S11307F08ABB26C047B321E030E0C901018002C0B2
S1130800880F991F0A94E2F7842B87BB19C044B35D
S113081021E030E0C901018002C0880F991F0A94C9
S1130820E2F7842B84BB0CC041B321E030E0C90162
S1130830018002C0880F991F0A94E2F7842B81BBC0
S113084081E00F910895CF93DF93FC01D181C081A2
S113085080E090E00E943D0620E030E443E854E468
S11308600E94F3060E94110662957295707F7627A6
S1130870607F76276115710509F46CC081E090E012
S113088002C0880F991FDA95E2F7282FD82FD09548
S113089080E090E0C234A1F0C33418F4C13471F59F
S11308A005C0C334B9F0C43449F51EC03BB3322B80
S11308B03BBBE0E7F2E03197F1F700C0000030C045
S11308C038B3322B38BBE0E7F2E03197F1F700C0E0
S11308D000002AC035B3322B35BBE0E7F2E0319794
S11308E0F1F700C0000024C032B3322B32BBE0E782
S11308F0F2E03197F1F700C000001EC0E0E7F2E03B
S11309003197F1F700C00000C23471F0C33418F419
S1130910C134A9F405C0C33459F0C43481F40CC003
S11309203BB33D233BBB0BC038B33D2338BB07C0AF
S113093035B33D2335BB03C032B33D2332BBE0E7BF
S1130940F2E03197F1F700C000000196861797078F
S113095009F0A0CF81E0DF91CF910895FB019EB50E
S1130960987F9EBD813431F428EE33E03BBD2ABD2F
S113097041E009C0823431F428EE33E039BD28BDAA
S113098041E001C040E092EA9FBD9AE19EBD20E2B1
S11309903EE437BD26BD80831182842F90E0089504
S11309A0CF92DF92EF92FF920F931F93CF93DF9337
S11309B000D0CDB7DEB76B017C018A0120E030E0C6
S11309C044E353E40E94A90520E030E04AE754E4FC
S11309D00E94F30620E030EC49E754E40E9441050C
S11309E00E941106DC01CB019A838983C701B601F9
S11309F020E030E0A9010E94EF0688238CF1C701B2
S1130A00B60120E030E044E353E40E94A505181643
S1130A1054F1C701B6010E941106F8016183808177
S1130A20813479F48EB5887F8EBD1DBC1CBC898150
S1130A309A819BBD8ABD8EB582608EBD81E090E0B7
S1130A4014C08EB5887F8EBD1DBC1CBC89819A8163
S1130A5099BD88BD8EB582608EBD81E090E005C0F1
S1130A6080E090E002C080E090E00F900F90DF9172
S1130A70CF911F910F91FF90EF90DF90CF90089549
S1130A805058BB27AA270ED070C161D130F066D16F
S1130A9020F031F49F3F11F41EF456C10EF4E0959A
S1130AA0E7FB4CC1E92F72D180F3BA1762077307D1
S1130AB08407950718F071F49EF58AC10EF4E09549
S1130AC00B2EBA2FA02D0B01B90190010C01CA0104
S1130AD0A0011124FF27591B99F0593F50F4503EAF
S1130AE068F11A16F040A22F232F342F4427585FA1
S1130AF0F3CF469537952795A795F0405395C9F7B9
S1130B007EF41F16BA0B620B730B840BBAF0915070
S1130B10A1F0FF0FBB1F661F771F881FC2F70EC00F
S1130B20BA0F621F731F841F48F4879577956795E2
S1130B30B795F7959E3F08F0B3CF9395880F08F0CB
S1130B409927EE0F979587950895D4D008F481E0FE
S1130B5008950CD00AC102D140F0F9D030F021F44C
S1130B605F3F19F0EBC0511134C1EEC00FD198F3BF
S1130B709923C9F35523B1F3951B550BBB27AA271A
S1130B8062177307840738F09F5F5F4F220F331F8C
S1130B90441FAA1FA9F333D00E2E3AF0E0E830D058
S1130BA091505040E695001CCAF729D0FE2F27D05B
S1130BB0660F771F881FBB1F261737074807AB0729
S1130BC0B0E809F0BB0B802DBF01FF2793585F4F9E
S1130BD02AF09E3F510568F0B1C0FBC05F3FECF3C3
S1130BE0983EDCF3869577956795B795F7959F5F63
S1130BF0C9F7880F911D9695879597F90895E1E0B7
S1130C00660F771F881FBB1F621773078407BA0715
S1130C1020F0621B730B840BBA0BEE1F88F7E09570
S1130C200895BCD088F09F5790F0B92F9927B751F9
S1130C30A0F0D1F0660F771F881F991F1AF0BA959C
S1130C40C9F712C0B13081F0C3D0B1E00895C0C07B
S1130C50672F782F8827B85F39F0B93FCCF3869592
S1130C6077956795B395D9F73EF4909580957095EF
S1130C7061957F4F8F4F9F4F0895E89409C097FB6C
S1130C803EF490958095709561957F4F8F4F9F4F5F
S1130C909923A9F0F92F96E9BB279395F6958795A3
S1130CA077956795B795F111F8CFFAF4BB0F11F466
S1130CB060FF1BC06F5F7F4F8F4F9F4F16C088230D
S1130CC011F096E911C0772321F09EE8872F762F43
S1130CD005C0662371F096E8862F70E060E02AF084
S1130CE09A95660F771F881FDAF7880F9695879570
S1130CF097F90895990F0008550FAA0BE0E8FEEF45
S1130D0016161706E807F907C0F012161306E407CB
S1130D10F50798F0621B730B840B950B39F40A26C4
S1130D2061F0232B242B252B21F408950A2609F4A2
S1130D30A140A6958FEF811D811D089597F99F67A6
S1130D4080E870E060E008959FEF80EC089500244F
S1130D500A941616170618060906089500240A941C
S1130D6012161306140605060895092E0394000CA2
S1130D7011F4882352F0BB0F40F4BF2B11F460FF31
S1130D8004C06F5F7F4F8F4F9F4F089557FD90585A
S1130D90440F551F59F05F3F71F04795880F97FB3B
S1130DA0991F61F09F3F79F08795089512161306F5
S1130DB01406551FF2CF4695F1DF08C01616170624
S1130DC01806991FF1CF8695710561050894089559
S1130DD0E894BB2766277727CB0197F908958ADF24
S1130DE008F48FEF08950BD0C0CFB1DF28F0B6DF41
S1130DF018F0952309F0A2CFA7CF1124EACFC6DFBC
S1130E00A0F3959FD1F3950F50E0551F629FF00119
S1130E10729FBB27F00DB11D639FAA27F00DB11D72
S1130E20AA1F649F6627B00DA11D661F829F2227FB
S1130E30B00DA11D621F739FB00DA11D621F839F82
S1130E40A00D611D221F749F3327A00D611D231F58
S1130E50849F600D211D822F762F6A2F11249F57A6
S1130E6050408AF0E1F088234AF0EE0FFF1FBB1FC9
S1130E70661F771F881F91505040A9F79E3F510568
S1130E8070F05CCFA6CF5F3FECF3983EDCF3869521
S1130E9077956795B795F795E7959F5FC1F7FE2B13
S1130EA0880F911D9695879597F90895F894FFCF2B
S9030000FC
